{
  "contractName": "Ballot",
  "abi": [
    {
      "constant": true,
      "inputs": [
        {
          "name": "",
          "type": "uint256"
        }
      ],
      "name": "candidates",
      "outputs": [
        {
          "name": "",
          "type": "string"
        }
      ],
      "payable": false,
      "stateMutability": "view",
      "type": "function"
    },
    {
      "constant": true,
      "inputs": [
        {
          "name": "",
          "type": "uint256"
        }
      ],
      "name": "votes",
      "outputs": [
        {
          "name": "",
          "type": "uint256"
        }
      ],
      "payable": false,
      "stateMutability": "view",
      "type": "function"
    },
    {
      "inputs": [
        {
          "name": "_candidates",
          "type": "string[]"
        },
        {
          "name": "_capubkey",
          "type": "string"
        }
      ],
      "payable": false,
      "stateMutability": "nonpayable",
      "type": "constructor"
    },
    {
      "constant": false,
      "inputs": [
        {
          "name": "option",
          "type": "uint256"
        }
      ],
      "name": "vote",
      "outputs": [],
      "payable": false,
      "stateMutability": "nonpayable",
      "type": "function"
    },
    {
      "constant": true,
      "inputs": [],
      "name": "getCandidates",
      "outputs": [
        {
          "name": "",
          "type": "string[]"
        }
      ],
      "payable": false,
      "stateMutability": "view",
      "type": "function"
    },
    {
      "constant": true,
      "inputs": [],
      "name": "getVotes",
      "outputs": [
        {
          "name": "",
          "type": "uint256[]"
        }
      ],
      "payable": false,
      "stateMutability": "view",
      "type": "function"
    },
    {
      "constant": true,
      "inputs": [],
      "name": "isValidVote",
      "outputs": [
        {
          "name": "",
          "type": "bool"
        }
      ],
      "payable": false,
      "stateMutability": "pure",
      "type": "function"
    },
    {
      "constant": true,
      "inputs": [],
      "name": "winningCandidate",
      "outputs": [
        {
          "name": "candidate",
          "type": "string"
        }
      ],
      "payable": false,
      "stateMutability": "view",
      "type": "function"
    }
  ],
  "bytecode": "0x60806040523480156200001157600080fd5b506040516200108038038062001080833981018060405262000037919081019062000405565b80600090805190602001906200004f92919062000087565b508160039080519060200190620000689291906200010e565b506003805490506001816200007e919062000175565b5050506200055f565b828054600181600116156101000203166002900490600052602060002090601f016020900481019282601f10620000ca57805160ff1916838001178555620000fb565b82800160010185558215620000fb579182015b82811115620000fa578251825591602001919060010190620000dd565b5b5090506200010a9190620001a4565b5090565b82805482825590600052602060002090810192821562000162579160200282015b828111156200016157825182908051906020019062000150929190620001cc565b50916020019190600101906200012f565b5b50905062000171919062000253565b5090565b8154818355818111156200019f578183600052602060002091820191016200019e9190620001a4565b5b505050565b620001c991905b80821115620001c5576000816000905550600101620001ab565b5090565b90565b828054600181600116156101000203166002900490600052602060002090601f016020900481019282601f106200020f57805160ff191683800117855562000240565b8280016001018555821562000240579182015b828111156200023f57825182559160200191906001019062000222565b5b5090506200024f9190620001a4565b5090565b6200028191905b808211156200027d576000818162000273919062000284565b506001016200025a565b5090565b90565b50805460018160011615610100020316600290046000825580601f10620002ac5750620002cd565b601f016020900490600052602060002090810190620002cc9190620001a4565b5b50565b600082601f830112620002e257600080fd5b8151620002f9620002f382620004a6565b62000478565b9150818183526020840193506020810190508360005b838110156200034357815186016200032888826200034d565b8452602084019350602083019250506001810190506200030f565b5050505092915050565b600082601f8301126200035f57600080fd5b8151620003766200037082620004cf565b62000478565b915080825260208301602083018583830111156200039357600080fd5b620003a083828462000529565b50505092915050565b600082601f830112620003bb57600080fd5b8151620003d2620003cc82620004fc565b62000478565b91508082526020830160208301858383011115620003ef57600080fd5b620003fc83828462000529565b50505092915050565b600080604083850312156200041957600080fd5b600083015167ffffffffffffffff8111156200043457600080fd5b6200044285828601620002d0565b925050602083015167ffffffffffffffff8111156200046057600080fd5b6200046e85828601620003a9565b9150509250929050565b6000604051905081810181811067ffffffffffffffff821117156200049c57600080fd5b8060405250919050565b600067ffffffffffffffff821115620004be57600080fd5b602082029050602081019050919050565b600067ffffffffffffffff821115620004e757600080fd5b601f19601f8301169050602081019050919050565b600067ffffffffffffffff8211156200051457600080fd5b601f19601f8301169050602081019050919050565b60005b83811015620005495780820151818401526020810190506200052c565b8381111562000559576000848401525b50505050565b610b11806200056f6000396000f3fe608060405234801561001057600080fd5b506004361061007d5760003560e01c80633477ee2e1161005b5780633477ee2e146100da5780635df813301461010a578063cd9d6b571461013a578063d28178d7146101585761007d565b80630121b93f1461008257806306a49fce1461009e5780630dc96015146100bc575b600080fd5b61009c60048036036100979190810190610644565b610176565b005b6100a66102e7565b6040516100b391906108c4565b60405180910390f35b6100c46103d0565b6040516100d191906108e6565b60405180910390f35b6100f460048036036100ef9190810190610644565b610428565b6040516101019190610923565b60405180910390f35b610124600480360361011f9190810190610644565b6104e1565b60405161013191906109a7565b60405180910390f35b610142610502565b60405161014f9190610908565b60405180910390f35b61016061050b565b60405161016d9190610945565b60405180910390f35b8060001115801561018b575060038054905081105b6101ca576040517f08c379a00000000000000000000000000000000000000000000000000000000081526004016101c190610987565b60405180910390fd5b600260003373ffffffffffffffffffffffffffffffffffffffff1673ffffffffffffffffffffffffffffffffffffffff16815260200190815260200160002060009054906101000a900460ff1615610257576040517f08c379a000000000000000000000000000000000000000000000000000000000815260040161024e90610967565b60405180910390fd5b6001600260003373ffffffffffffffffffffffffffffffffffffffff1673ffffffffffffffffffffffffffffffffffffffff16815260200190815260200160002060006101000a81548160ff02191690831515021790555060018082815481106102bd57fe5b906000526020600020015401600182815481106102d657fe5b906000526020600020018190555050565b60606003805480602002602001604051908101604052809291908181526020016000905b828210156103c7578382906000526020600020018054600181600116156101000203166002900480601f0160208091040260200160405190810160405280929190818152602001828054600181600116156101000203166002900480156103b35780601f10610388576101008083540402835291602001916103b3565b820191906000526020600020905b81548152906001019060200180831161039657829003601f168201915b50505050508152602001906001019061030b565b50505050905090565b6060600180548060200260200160405190810160405280929190818152602001828054801561041e57602002820191906000526020600020905b81548152602001906001019080831161040a575b5050505050905090565b6003818154811061043557fe5b906000526020600020016000915090508054600181600116156101000203166002900480601f0160208091040260200160405190810160405280929190818152602001828054600181600116156101000203166002900480156104d95780601f106104ae576101008083540402835291602001916104d9565b820191906000526020600020905b8154815290600101906020018083116104bc57829003601f168201915b505050505081565b600181815481106104ee57fe5b906000526020600020016000915090505481565b60006001905090565b6060600080905060008090505b6003805490508160ff16101561062a578160018260ff168154811061053957fe5b9060005260206000200154111561061d5760018160ff168154811061055a57fe5b9060005260206000200154915060038160ff168154811061057757fe5b906000526020600020018054600181600116156101000203166002900480601f0160208091040260200160405190810160405280929190818152602001828054600181600116156101000203166002900480156106155780601f106105ea57610100808354040283529160200191610615565b820191906000526020600020905b8154815290600101906020018083116105f857829003601f168201915b505050505092505b8080600101915050610518565b505090565b60008135905061063e81610ac0565b92915050565b60006020828403121561065657600080fd5b60006106648482850161062f565b91505092915050565b600061067983836107b4565b905092915050565b600061068d83836108a6565b60208301905092915050565b60006106a4826109dc565b6106ae8185610a22565b9350836020820285016106c0856109c2565b8060005b858110156106fc57848403895281516106dd858261066d565b94506106e883610a08565b925060208a019950506001810190506106c4565b50829750879550505050505092915050565b6000610719826109e7565b6107238185610a33565b935061072e836109cf565b8060005b8381101561075f5781516107468882610681565b975061075183610a15565b925050600181019050610732565b5085935050505092915050565b61077581610a66565b82525050565b6000610786826109fd565b6107908185610a55565b93506107a0818560208601610a7c565b6107a981610aaf565b840191505092915050565b60006107bf826109f2565b6107c98185610a44565b93506107d9818560208601610a7c565b6107e281610aaf565b840191505092915050565b60006107f8826109f2565b6108028185610a55565b9350610812818560208601610a7c565b61081b81610aaf565b840191505092915050565b6000610833601983610a55565b91507f4163636f756e742068617320616c726561647920766f746564000000000000006000830152602082019050919050565b6000610873600e83610a55565b91507f496e76616c6964206f7074696f6e0000000000000000000000000000000000006000830152602082019050919050565b6108af81610a72565b82525050565b6108be81610a72565b82525050565b600060208201905081810360008301526108de8184610699565b905092915050565b60006020820190508181036000830152610900818461070e565b905092915050565b600060208201905061091d600083018461076c565b92915050565b6000602082019050818103600083015261093d81846107ed565b905092915050565b6000602082019050818103600083015261095f818461077b565b905092915050565b6000602082019050818103600083015261098081610826565b9050919050565b600060208201905081810360008301526109a081610866565b9050919050565b60006020820190506109bc60008301846108b5565b92915050565b6000602082019050919050565b6000602082019050919050565b600081519050919050565b600081519050919050565b600081519050919050565b600081519050919050565b6000602082019050919050565b6000602082019050919050565b600082825260208201905092915050565b600082825260208201905092915050565b600082825260208201905092915050565b600082825260208201905092915050565b60008115159050919050565b6000819050919050565b60005b83811015610a9a578082015181840152602081019050610a7f565b83811115610aa9576000848401525b50505050565b6000601f19601f8301169050919050565b610ac981610a72565b8114610ad457600080fd5b5056fea265627a7a723058205f5f5e9e9c03a341a8d37f296c6f61a8392477b76fce893beebf048480acee0b6c6578706572696d656e74616cf50037",
  "source": "pragma solidity >=0.4.22 <0.6.0;\npragma experimental ABIEncoderV2;\ncontract Ballot {\n\n    string CApubkey;\n    uint[] public votes;\n    mapping (address => bool) hasVoted;\n    string[] public candidates;\n\n    /// Create a new ballot with different candidates\n    constructor(string[] memory _candidates, string memory _capubkey) public {\n        CApubkey = _capubkey;\n        candidates = _candidates;\n        votes.length = candidates.length;\n    }\n\n    function vote(uint option) public {\n        require(0 <= option && option < candidates.length, \"Invalid option\");\n        require(!hasVoted[msg.sender], \"Account has already voted\");\n\n        hasVoted[msg.sender] = true;\n        votes[option] = votes[option] + 1;\n    }\n\n    function getCandidates() public view returns (string[] memory) {\n        return candidates;\n    }\n\n    function getVotes() public view returns (uint[] memory) {\n        return votes;\n    }\n\n\n    function isValidVote(/* string memory _vote, string memory _signedVote */) public pure returns(bool) {\n        // Check signature on _signedVote with CApubkey\n        return true;\n    }\n\n    function winningCandidate() public view returns (string memory candidate) {\n        uint256 winningVoteCount = 0;\n        for (uint8 i = 0; i < candidates.length; i++)\n            if (votes[i] > winningVoteCount) {\n                winningVoteCount = votes[i];\n                candidate = candidates[i];\n            }\n    }\n}\n",
  "sourcePath": "/Users/atulbagga/Desktop/Hack2019/mVote/contracts/Ballot.sol",
  "compiler": {
    "name": "solc",
    "version": "0.5.8+commit.23d335f2.Emscripten.clang"
  },
  "schemaVersion": "3.0.11",
  "updatedAt": "2019-07-24T11:40:07.144Z",
  "devdoc": {
    "methods": {}
  },
  "userdoc": {
    "methods": {
      "constructor": "Create a new ballot with different candidates"
    }
  }
}